:10000000BFC00000D8C00000D6C00000D4C00000AF
:10001000D2C00000D0C00000CEC00000CCC00000A4
:10002000CAC00000C8C0000097C10000F4C10000B1
:10003000C2C00000C0C00000BEC00000BCC00000C4
:10004000BAC00000B8C00000B6C00000B4C00000D4
:10005000B2C00000B0C00000AEC00000ACC00000E4
:10006000AAC00000A8C00000A6C00000A4C00000F4
:10007000A2C00000A0C000009EC000009CC0000004
:100080009AC0000098C0000096C0000094C0000014
:1000900092C0000090C000008EC000008CC0000024
:1000A0008AC0000088C0000086C000000001000077
:1000B000E3001200020000F50022002200001701F8
:1000C0003F00210000070109000300005601040160
:1000D0000309045A0110020309046C011200000113
:1000E000C106001201000200000020C0167C0400BE
:1000F000010102000109022200010100C0320904CD
:1001000000000103010100092111010001223F004B
:100110000705830308000105010906A10175019582
:1001200008050719E029E7150025018102950175E9
:1001300008810395057501050819012905910295A6
:1001400001750391039506750815002568050719C3
:100150000029688100C00403090410034D006600F3
:1001600067004E0061006D006500000012034B0047
:100170006500790062006F00610072006400000099
:1001800011241FBECFEFDAE0DEBFCDBF11E0A0E04B
:10019000B1E0E4EFF6E002C005900D92AA30B1079D
:1001A000D9F711E0AAE0B1E001C01D92AD31B1076D
:1001B000E1F702D09DC224CF80E8809361001092C5
:1001C000610014B88FEF85B98AB91BB865D07BD0B0
:1001D0008823E9F38FEF93EDA0E381509040A04096
:1001E000E1F700C0000043B1E0E0F1E0AAE0B1E0D7
:1001F000EF0124E081E090E03991342321F411965D
:100200001C921E9203C011969C938E9321501296BD
:10021000222391F7AAE0B1E024E08D919D9100970F
:1002200029F49BB180818095892303C08BB1908193
:10023000892B8BB921503196222379F71FEF03B117
:100240008AE0E82E81E0F82EC0E0D0E0D7018D9161
:100250009D917D01009779F0FE01E050FF4F808174
:10026000982F902341F4812331F0FE01EC5FFE4F83
:10027000808160E064D02196C430D10539F7EFE386
:10028000FFE13197F1F700C00000102FD8CF809127
:10029000E80080FFFCCF089581E08093D70080EADA
:1002A0008093D80082E189BD09B400FEFDCF80E9CA
:1002B0008093D8001092E00010921A018CE0809395
:1002C000E2007894089580911A01089580911A01AE
:1002D000882389F18FB7F89493E09093E900909187
:1002E000E4009E5C23E03091E80035FD0EC08FBF36
:1002F00080911A018823F9F08091E4008917E9F0D0
:100300008FB7F8942093E900EECF90911901909364
:10031000F1001092F100E3E1F1E096E021912093E9
:10032000F1009150D9F79AE39093E80010921B01E5
:100330008FBF80E008958FEF08958FEF0895609349
:10034000190180931301C2DF882329F41092190147
:1003500010921301BBCF08951F920F920FB60F9208
:1003600011242F938F939F93EF93FF938091E1003C
:100370001092E10083FF0FC01092E90091E090938A
:10038000EB001092EC0092E29093ED0098E09093D5
:10039000F00010921A0182FF34C080911A01882364
:1003A00081F120910801222361F180911C018F5F6E
:1003B00080931C0190E083709070009711F583E0AA
:1003C0008093E9008091E80085FF1BC080911B01AC
:1003D0008F5F80931B018217A1F410921B01809103
:1003E00019018093F1001092F100E3E1F1E080E067
:1003F00091919093F1008F5F8630D1F78AE38093DB
:10040000E800FF91EF919F918F912F910F900FBE78
:100410000F901F9018951F920F920FB60F921124F4
:10042000EF92FF920F931F932F933F934F935F93FE
:100430006F937F938F939F93AF93BF93EF93FF93AC
:10044000CF93DF930F92CDB7DEB71092E900809182
:10045000E80083FF32C12091F1003091F100E0907B
:10046000F100FF244091F100942F80E0E82AF92A5E
:100470000091F10010E04091F100942F80E0082BF2
:10048000192B6091F100A091F10082EF8093E800B8
:10049000363009F051C047E02CEA30E0F90185918F
:1004A00094918E159F0539F4F901329685919491B6
:1004B0008017910729F0295F3F4F415079F7FDC020
:1004C000F901349685919491AC012A5F3F4FF9016F
:1004D000249170E09A2F80E0682B792B6F3F710593
:1004E00019F010F06FEF70E0621708F4262FAEEFEE
:1004F0008091E80090E0BC01657070706115710535
:10050000B9F382FDDDC0322F213208F030E2CA019A
:10051000632F06C0FC010196E491E093F100615065
:100520006623C1F7430F511D231BA093E80022232C
:10053000F9F63032E9F2C4C0353049F48EEF8093D9
:10054000E800A5DE8E2D80688093E300B9C03930C5
:1005500049F5222309F06CC0E0921A018EEF8093D6
:10056000E80041E08DED90E001C0C9014093E90051
:100570009C012F5F3F4FFC0154915093EB0055239A
:1005800061F0F90124912093EC009C012D5F3F4F15
:100590000296FC0184918093ED004F5F453029F76E
:1005A0008EE141C0383039F4203809F041C06FDEA7
:1005B00080911A0160C03323A9F4298368DE298160
:1005C000223851F40093E9009091EB0081E095FF0F
:1005D00080E01092E90001C080E08093F100109269
:1005E000F10067C0313011F0333011F5223001F5E0
:1005F000E114F104E9F4402F4F77842F81508430C7
:10060000B8F48EEF8093E8004093E900333009F4AA
:1006100054C089E18093EB0081E090E002C0880F34
:10062000991F4A95E2F78093EA001092EA0048C0C9
:100630000115110509F041C0213A01F5313081F46D
:1006400026DE809119018093F1001092F100E3E120
:10065000F1E086E091919093F1008150D9F729C0A3
:10066000323021F414DE8091080105C0333029F5C1
:100670000EDE809109018093F1001BC02132E9F464
:10068000393061F48091E80082FFFCCF8091F10065
:10069000809312018BEF8093E8000BC03A3029F46D
:1006A000F092080110921B0104C03B3031F4E0923B
:1006B00009018EEF8093E80003C081E28093EB0094
:1006C0000F90DF91CF91FF91EF91BF91AF919F91EB
:1006D0008F917F916F915F914F913F912F911F91DA
:1006E0000F91FF90EF900F900FBE0F901F901895F5
:0406F000F894FFCFAC
:0A06F40004084080042C28167D0144
:00000001FF
